{
  "_format": "hh-sol-artifact-1",
  "contractName": "NFT",
  "sourceName": "contracts/NFT.sol",
  "abi": [
    {
      "inputs": [],
      "stateMutability": "nonpayable",
      "type": "constructor"
    },
    {
      "anonymous": false,
      "inputs": [
        {
          "indexed": true,
          "internalType": "address",
          "name": "owner",
          "type": "address"
        },
        {
          "indexed": true,
          "internalType": "address",
          "name": "approved",
          "type": "address"
        },
        {
          "indexed": true,
          "internalType": "uint256",
          "name": "tokenId",
          "type": "uint256"
        }
      ],
      "name": "Approval",
      "type": "event"
    },
    {
      "anonymous": false,
      "inputs": [
        {
          "indexed": true,
          "internalType": "address",
          "name": "owner",
          "type": "address"
        },
        {
          "indexed": true,
          "internalType": "address",
          "name": "operator",
          "type": "address"
        },
        {
          "indexed": false,
          "internalType": "bool",
          "name": "approved",
          "type": "bool"
        }
      ],
      "name": "ApprovalForAll",
      "type": "event"
    },
    {
      "anonymous": false,
      "inputs": [
        {
          "indexed": false,
          "internalType": "uint256",
          "name": "_fromTokenId",
          "type": "uint256"
        },
        {
          "indexed": false,
          "internalType": "uint256",
          "name": "_toTokenId",
          "type": "uint256"
        }
      ],
      "name": "BatchMetadataUpdate",
      "type": "event"
    },
    {
      "anonymous": false,
      "inputs": [
        {
          "indexed": false,
          "internalType": "uint256",
          "name": "_tokenId",
          "type": "uint256"
        }
      ],
      "name": "MetadataUpdate",
      "type": "event"
    },
    {
      "anonymous": false,
      "inputs": [
        {
          "indexed": true,
          "internalType": "address",
          "name": "from",
          "type": "address"
        },
        {
          "indexed": true,
          "internalType": "address",
          "name": "to",
          "type": "address"
        },
        {
          "indexed": true,
          "internalType": "uint256",
          "name": "tokenId",
          "type": "uint256"
        }
      ],
      "name": "Transfer",
      "type": "event"
    },
    {
      "inputs": [
        {
          "internalType": "address",
          "name": "to",
          "type": "address"
        },
        {
          "internalType": "uint256",
          "name": "tokenId",
          "type": "uint256"
        }
      ],
      "name": "approve",
      "outputs": [],
      "stateMutability": "nonpayable",
      "type": "function"
    },
    {
      "inputs": [
        {
          "internalType": "address",
          "name": "owner",
          "type": "address"
        }
      ],
      "name": "balanceOf",
      "outputs": [
        {
          "internalType": "uint256",
          "name": "",
          "type": "uint256"
        }
      ],
      "stateMutability": "view",
      "type": "function"
    },
    {
      "inputs": [
        {
          "internalType": "string",
          "name": "tokenURI",
          "type": "string"
        }
      ],
      "name": "createToken",
      "outputs": [
        {
          "internalType": "uint256",
          "name": "",
          "type": "uint256"
        }
      ],
      "stateMutability": "payable",
      "type": "function"
    },
    {
      "inputs": [
        {
          "internalType": "uint256",
          "name": "tokenId",
          "type": "uint256"
        }
      ],
      "name": "getApproved",
      "outputs": [
        {
          "internalType": "address",
          "name": "",
          "type": "address"
        }
      ],
      "stateMutability": "view",
      "type": "function"
    },
    {
      "inputs": [
        {
          "internalType": "address",
          "name": "owner",
          "type": "address"
        },
        {
          "internalType": "address",
          "name": "operator",
          "type": "address"
        }
      ],
      "name": "isApprovedForAll",
      "outputs": [
        {
          "internalType": "bool",
          "name": "",
          "type": "bool"
        }
      ],
      "stateMutability": "view",
      "type": "function"
    },
    {
      "inputs": [],
      "name": "name",
      "outputs": [
        {
          "internalType": "string",
          "name": "",
          "type": "string"
        }
      ],
      "stateMutability": "view",
      "type": "function"
    },
    {
      "inputs": [
        {
          "internalType": "uint256",
          "name": "tokenId",
          "type": "uint256"
        }
      ],
      "name": "ownerOf",
      "outputs": [
        {
          "internalType": "address",
          "name": "",
          "type": "address"
        }
      ],
      "stateMutability": "view",
      "type": "function"
    },
    {
      "inputs": [
        {
          "internalType": "address",
          "name": "from",
          "type": "address"
        },
        {
          "internalType": "address",
          "name": "to",
          "type": "address"
        },
        {
          "internalType": "uint256",
          "name": "tokenId",
          "type": "uint256"
        }
      ],
      "name": "safeTransferFrom",
      "outputs": [],
      "stateMutability": "nonpayable",
      "type": "function"
    },
    {
      "inputs": [
        {
          "internalType": "address",
          "name": "from",
          "type": "address"
        },
        {
          "internalType": "address",
          "name": "to",
          "type": "address"
        },
        {
          "internalType": "uint256",
          "name": "tokenId",
          "type": "uint256"
        },
        {
          "internalType": "bytes",
          "name": "data",
          "type": "bytes"
        }
      ],
      "name": "safeTransferFrom",
      "outputs": [],
      "stateMutability": "nonpayable",
      "type": "function"
    },
    {
      "inputs": [
        {
          "internalType": "address",
          "name": "operator",
          "type": "address"
        },
        {
          "internalType": "bool",
          "name": "approved",
          "type": "bool"
        }
      ],
      "name": "setApprovalForAll",
      "outputs": [],
      "stateMutability": "nonpayable",
      "type": "function"
    },
    {
      "inputs": [
        {
          "internalType": "bytes4",
          "name": "interfaceId",
          "type": "bytes4"
        }
      ],
      "name": "supportsInterface",
      "outputs": [
        {
          "internalType": "bool",
          "name": "",
          "type": "bool"
        }
      ],
      "stateMutability": "view",
      "type": "function"
    },
    {
      "inputs": [],
      "name": "symbol",
      "outputs": [
        {
          "internalType": "string",
          "name": "",
          "type": "string"
        }
      ],
      "stateMutability": "view",
      "type": "function"
    },
    {
      "inputs": [],
      "name": "tokenCount",
      "outputs": [
        {
          "internalType": "uint256",
          "name": "",
          "type": "uint256"
        }
      ],
      "stateMutability": "view",
      "type": "function"
    },
    {
      "inputs": [
        {
          "internalType": "uint256",
          "name": "tokenId",
          "type": "uint256"
        }
      ],
      "name": "tokenURI",
      "outputs": [
        {
          "internalType": "string",
          "name": "",
          "type": "string"
        }
      ],
      "stateMutability": "view",
      "type": "function"
    },
    {
      "inputs": [
        {
          "internalType": "address",
          "name": "from",
          "type": "address"
        },
        {
          "internalType": "address",
          "name": "to",
          "type": "address"
        },
        {
          "internalType": "uint256",
          "name": "tokenId",
          "type": "uint256"
        }
      ],
      "name": "transferFrom",
      "outputs": [],
      "stateMutability": "nonpayable",
      "type": "function"
    }
  ],
  "bytecode": "0x60806040523480156200001157600080fd5b506040518060400160405280600881526020017f44417070204e46540000000000000000000000000000000000000000000000008152506040518060400160405280600481526020017f444150500000000000000000000000000000000000000000000000000000000081525081600090816200008f919062000324565b508060019081620000a1919062000324565b5050506200040b565b600081519050919050565b7f4e487b7100000000000000000000000000000000000000000000000000000000600052604160045260246000fd5b7f4e487b7100000000000000000000000000000000000000000000000000000000600052602260045260246000fd5b600060028204905060018216806200012c57607f821691505b602082108103620001425762000141620000e4565b5b50919050565b60008190508160005260206000209050919050565b60006020601f8301049050919050565b600082821b905092915050565b600060088302620001ac7fffffffffffffffffffffffffffffffffffffffffffffffffffffffffffffffff826200016d565b620001b886836200016d565b95508019841693508086168417925050509392505050565b6000819050919050565b6000819050919050565b600062000205620001ff620001f984620001d0565b620001da565b620001d0565b9050919050565b6000819050919050565b6200022183620001e4565b6200023962000230826200020c565b8484546200017a565b825550505050565b600090565b6200025062000241565b6200025d81848462000216565b505050565b5b8181101562000285576200027960008262000246565b60018101905062000263565b5050565b601f821115620002d4576200029e8162000148565b620002a9846200015d565b81016020851015620002b9578190505b620002d1620002c8856200015d565b83018262000262565b50505b505050565b600082821c905092915050565b6000620002f960001984600802620002d9565b1980831691505092915050565b6000620003148383620002e6565b9150826002028217905092915050565b6200032f82620000aa565b67ffffffffffffffff8111156200034b576200034a620000b5565b5b62000357825462000113565b6200036482828562000289565b600060209050601f8311600181146200039c576000841562000387578287015190505b62000393858262000306565b86555062000403565b601f198416620003ac8662000148565b60005b82811015620003d657848901518255600182019150602085019450602081019050620003af565b86831015620003f65784890151620003f2601f891682620002e6565b8355505b6001600288020188555050505b505050505050565b612c77806200041b6000396000f3fe6080604052600436106100e85760003560e01c80636352211e1161008a578063a22cb46511610059578063a22cb4651461030d578063b88d4fde14610336578063c87b56dd1461035f578063e985e9c51461039c576100e8565b80636352211e1461023d57806370a082311461027a57806395d89b41146102b75780639f181b5e146102e2576100e8565b8063095ea7b3116100c6578063095ea7b31461019257806323b872dd146101bb57806342842e0e146101e457806345576f941461020d576100e8565b806301ffc9a7146100ed57806306fdde031461012a578063081812fc14610155575b600080fd5b3480156100f957600080fd5b50610114600480360381019061010f9190611b02565b6103d9565b6040516101219190611b4a565b60405180910390f35b34801561013657600080fd5b5061013f61043a565b60405161014c9190611bf5565b60405180910390f35b34801561016157600080fd5b5061017c60048036038101906101779190611c4d565b6104cc565b6040516101899190611cbb565b60405180910390f35b34801561019e57600080fd5b506101b960048036038101906101b49190611d02565b610512565b005b3480156101c757600080fd5b506101e260048036038101906101dd9190611d42565b610629565b005b3480156101f057600080fd5b5061020b60048036038101906102069190611d42565b610689565b005b61022760048036038101906102229190611eca565b6106a9565b6040516102349190611f22565b60405180910390f35b34801561024957600080fd5b50610264600480360381019061025f9190611c4d565b6106e7565b6040516102719190611cbb565b60405180910390f35b34801561028657600080fd5b506102a1600480360381019061029c9190611f3d565b61076d565b6040516102ae9190611f22565b60405180910390f35b3480156102c357600080fd5b506102cc610824565b6040516102d99190611bf5565b60405180910390f35b3480156102ee57600080fd5b506102f76108b6565b6040516103049190611f22565b60405180910390f35b34801561031957600080fd5b50610334600480360381019061032f9190611f96565b6108bc565b005b34801561034257600080fd5b5061035d60048036038101906103589190612077565b6108d2565b005b34801561036b57600080fd5b5061038660048036038101906103819190611c4d565b610934565b6040516103939190611bf5565b60405180910390f35b3480156103a857600080fd5b506103c360048036038101906103be91906120fa565b610a46565b6040516103d09190611b4a565b60405180910390f35b6000634906490660e01b7bffffffffffffffffffffffffffffffffffffffffffffffffffffffff1916827bffffffffffffffffffffffffffffffffffffffffffffffffffffffff19161480610433575061043282610ada565b5b9050919050565b60606000805461044990612169565b80601f016020809104026020016040519081016040528092919081815260200182805461047590612169565b80156104c25780601f10610497576101008083540402835291602001916104c2565b820191906000526020600020905b8154815290600101906020018083116104a557829003601f168201915b5050505050905090565b60006104d782610bbc565b6004600083815260200190815260200160002060009054906101000a900473ffffffffffffffffffffffffffffffffffffffff169050919050565b600061051d826106e7565b90508073ffffffffffffffffffffffffffffffffffffffff168373ffffffffffffffffffffffffffffffffffffffff160361058d576040517f08c379a00000000000000000000000000000000000000000000000000000000081526004016105849061220c565b60405180910390fd5b8073ffffffffffffffffffffffffffffffffffffffff166105ac610c07565b73ffffffffffffffffffffffffffffffffffffffff1614806105db57506105da816105d5610c07565b610a46565b5b61061a576040517f08c379a00000000000000000000000000000000000000000000000000000000081526004016106119061229e565b60405180910390fd5b6106248383610c0f565b505050565b61063a610634610c07565b82610cc8565b610679576040517f08c379a000000000000000000000000000000000000000000000000000000000815260040161067090612330565b60405180910390fd5b610684838383610d5d565b505050565b6106a4838383604051806020016040528060008152506108d2565b505050565b6000600760008154809291906106be9061237f565b9190505550600060075490506106d43382611056565b6106de8184611074565b80915050919050565b6000806106f383611118565b9050600073ffffffffffffffffffffffffffffffffffffffff168173ffffffffffffffffffffffffffffffffffffffff1603610764576040517f08c379a000000000000000000000000000000000000000000000000000000000815260040161075b90612413565b60405180910390fd5b80915050919050565b60008073ffffffffffffffffffffffffffffffffffffffff168273ffffffffffffffffffffffffffffffffffffffff16036107dd576040517f08c379a00000000000000000000000000000000000000000000000000000000081526004016107d4906124a5565b60405180910390fd5b600360008373ffffffffffffffffffffffffffffffffffffffff1673ffffffffffffffffffffffffffffffffffffffff168152602001908152602001600020549050919050565b60606001805461083390612169565b80601f016020809104026020016040519081016040528092919081815260200182805461085f90612169565b80156108ac5780601f10610881576101008083540402835291602001916108ac565b820191906000526020600020905b81548152906001019060200180831161088f57829003601f168201915b5050505050905090565b60075481565b6108ce6108c7610c07565b8383611155565b5050565b6108e36108dd610c07565b83610cc8565b610922576040517f08c379a000000000000000000000000000000000000000000000000000000000815260040161091990612330565b60405180910390fd5b61092e848484846112c1565b50505050565b606061093f82610bbc565b600060066000848152602001908152602001600020805461095f90612169565b80601f016020809104026020016040519081016040528092919081815260200182805461098b90612169565b80156109d85780601f106109ad576101008083540402835291602001916109d8565b820191906000526020600020905b8154815290600101906020018083116109bb57829003601f168201915b5050505050905060006109e961131d565b905060008151036109fe578192505050610a41565b600082511115610a33578082604051602001610a1b929190612501565b60405160208183030381529060405292505050610a41565b610a3c84611334565b925050505b919050565b6000600560008473ffffffffffffffffffffffffffffffffffffffff1673ffffffffffffffffffffffffffffffffffffffff16815260200190815260200160002060008373ffffffffffffffffffffffffffffffffffffffff1673ffffffffffffffffffffffffffffffffffffffff16815260200190815260200160002060009054906101000a900460ff16905092915050565b60007f80ac58cd000000000000000000000000000000000000000000000000000000007bffffffffffffffffffffffffffffffffffffffffffffffffffffffff1916827bffffffffffffffffffffffffffffffffffffffffffffffffffffffff19161480610ba557507f5b5e139f000000000000000000000000000000000000000000000000000000007bffffffffffffffffffffffffffffffffffffffffffffffffffffffff1916827bffffffffffffffffffffffffffffffffffffffffffffffffffffffff1916145b80610bb55750610bb48261139c565b5b9050919050565b610bc581611406565b610c04576040517f08c379a0000000000000000000000000000000000000000000000000000000008152600401610bfb90612413565b60405180910390fd5b50565b600033905090565b816004600083815260200190815260200160002060006101000a81548173ffffffffffffffffffffffffffffffffffffffff021916908373ffffffffffffffffffffffffffffffffffffffff160217905550808273ffffffffffffffffffffffffffffffffffffffff16610c82836106e7565b73ffffffffffffffffffffffffffffffffffffffff167f8c5be1e5ebec7d5bd14f71427d1e84f3dd0314c0f7b2291e5b200ac8c7c3b92560405160405180910390a45050565b600080610cd4836106e7565b90508073ffffffffffffffffffffffffffffffffffffffff168473ffffffffffffffffffffffffffffffffffffffff161480610d165750610d158185610a46565b5b80610d5457508373ffffffffffffffffffffffffffffffffffffffff16610d3c846104cc565b73ffffffffffffffffffffffffffffffffffffffff16145b91505092915050565b8273ffffffffffffffffffffffffffffffffffffffff16610d7d826106e7565b73ffffffffffffffffffffffffffffffffffffffff1614610dd3576040517f08c379a0000000000000000000000000000000000000000000000000000000008152600401610dca90612597565b60405180910390fd5b600073ffffffffffffffffffffffffffffffffffffffff168273ffffffffffffffffffffffffffffffffffffffff1603610e42576040517f08c379a0000000000000000000000000000000000000000000000000000000008152600401610e3990612629565b60405180910390fd5b610e4f8383836001611447565b8273ffffffffffffffffffffffffffffffffffffffff16610e6f826106e7565b73ffffffffffffffffffffffffffffffffffffffff1614610ec5576040517f08c379a0000000000000000000000000000000000000000000000000000000008152600401610ebc90612597565b60405180910390fd5b6004600082815260200190815260200160002060006101000a81549073ffffffffffffffffffffffffffffffffffffffff02191690556001600360008573ffffffffffffffffffffffffffffffffffffffff1673ffffffffffffffffffffffffffffffffffffffff168152602001908152602001600020600082825403925050819055506001600360008473ffffffffffffffffffffffffffffffffffffffff1673ffffffffffffffffffffffffffffffffffffffff16815260200190815260200160002060008282540192505081905550816002600083815260200190815260200160002060006101000a81548173ffffffffffffffffffffffffffffffffffffffff021916908373ffffffffffffffffffffffffffffffffffffffff160217905550808273ffffffffffffffffffffffffffffffffffffffff168473ffffffffffffffffffffffffffffffffffffffff167fddf252ad1be2c89b69c2b068fc378daa952ba7f163c4a11628f55a4df523b3ef60405160405180910390a4611051838383600161144d565b505050565b611070828260405180602001604052806000815250611453565b5050565b61107d82611406565b6110bc576040517f08c379a00000000000000000000000000000000000000000000000000000000081526004016110b3906126bb565b60405180910390fd5b806006600084815260200190815260200160002090816110dc9190612887565b507ff8e1a15aba9398e019f0b49df1a4fde98ee17ae345cb5f6b5e2c27f5033e8ce78260405161110c9190611f22565b60405180910390a15050565b60006002600083815260200190815260200160002060009054906101000a900473ffffffffffffffffffffffffffffffffffffffff169050919050565b8173ffffffffffffffffffffffffffffffffffffffff168373ffffffffffffffffffffffffffffffffffffffff16036111c3576040517f08c379a00000000000000000000000000000000000000000000000000000000081526004016111ba906129a5565b60405180910390fd5b80600560008573ffffffffffffffffffffffffffffffffffffffff1673ffffffffffffffffffffffffffffffffffffffff16815260200190815260200160002060008473ffffffffffffffffffffffffffffffffffffffff1673ffffffffffffffffffffffffffffffffffffffff16815260200190815260200160002060006101000a81548160ff0219169083151502179055508173ffffffffffffffffffffffffffffffffffffffff168373ffffffffffffffffffffffffffffffffffffffff167f17307eab39ab6107e8899845ad3d59bd9653f200f220920489ca2b5937696c31836040516112b49190611b4a565b60405180910390a3505050565b6112cc848484610d5d565b6112d8848484846114ae565b611317576040517f08c379a000000000000000000000000000000000000000000000000000000000815260040161130e90612a37565b60405180910390fd5b50505050565b606060405180602001604052806000815250905090565b606061133f82610bbc565b600061134961131d565b905060008151116113695760405180602001604052806000815250611394565b8061137384611635565b604051602001611384929190612501565b6040516020818303038152906040525b915050919050565b60007f01ffc9a7000000000000000000000000000000000000000000000000000000007bffffffffffffffffffffffffffffffffffffffffffffffffffffffff1916827bffffffffffffffffffffffffffffffffffffffffffffffffffffffff1916149050919050565b60008073ffffffffffffffffffffffffffffffffffffffff1661142883611118565b73ffffffffffffffffffffffffffffffffffffffff1614159050919050565b50505050565b50505050565b61145d8383611703565b61146a60008484846114ae565b6114a9576040517f08c379a00000000000000000000000000000000000000000000000000000000081526004016114a090612a37565b60405180910390fd5b505050565b60006114cf8473ffffffffffffffffffffffffffffffffffffffff16611920565b15611628578373ffffffffffffffffffffffffffffffffffffffff1663150b7a026114f8610c07565b8786866040518563ffffffff1660e01b815260040161151a9493929190612aac565b6020604051808303816000875af192505050801561155657506040513d601f19601f820116820180604052508101906115539190612b0d565b60015b6115d8573d8060008114611586576040519150601f19603f3d011682016040523d82523d6000602084013e61158b565b606091505b5060008151036115d0576040517f08c379a00000000000000000000000000000000000000000000000000000000081526004016115c790612a37565b60405180910390fd5b805181602001fd5b63150b7a0260e01b7bffffffffffffffffffffffffffffffffffffffffffffffffffffffff1916817bffffffffffffffffffffffffffffffffffffffffffffffffffffffff19161491505061162d565b600190505b949350505050565b60606000600161164484611943565b01905060008167ffffffffffffffff81111561166357611662611d9f565b5b6040519080825280601f01601f1916602001820160405280156116955781602001600182028036833780820191505090505b509050600082602001820190505b6001156116f8578080600190039150507f3031323334353637383961626364656600000000000000000000000000000000600a86061a8153600a85816116ec576116eb612b3a565b5b049450600085036116a3575b819350505050919050565b600073ffffffffffffffffffffffffffffffffffffffff168273ffffffffffffffffffffffffffffffffffffffff1603611772576040517f08c379a000000000000000000000000000000000000000000000000000000000815260040161176990612bb5565b60405180910390fd5b61177b81611406565b156117bb576040517f08c379a00000000000000000000000000000000000000000000000000000000081526004016117b290612c21565b60405180910390fd5b6117c9600083836001611447565b6117d281611406565b15611812576040517f08c379a000000000000000000000000000000000000000000000000000000000815260040161180990612c21565b60405180910390fd5b6001600360008473ffffffffffffffffffffffffffffffffffffffff1673ffffffffffffffffffffffffffffffffffffffff16815260200190815260200160002060008282540192505081905550816002600083815260200190815260200160002060006101000a81548173ffffffffffffffffffffffffffffffffffffffff021916908373ffffffffffffffffffffffffffffffffffffffff160217905550808273ffffffffffffffffffffffffffffffffffffffff16600073ffffffffffffffffffffffffffffffffffffffff167fddf252ad1be2c89b69c2b068fc378daa952ba7f163c4a11628f55a4df523b3ef60405160405180910390a461191c60008383600161144d565b5050565b6000808273ffffffffffffffffffffffffffffffffffffffff163b119050919050565b600080600090507a184f03e93ff9f4daa797ed6e38ed64bf6a1f01000000000000000083106119a1577a184f03e93ff9f4daa797ed6e38ed64bf6a1f010000000000000000838161199757611996612b3a565b5b0492506040810190505b6d04ee2d6d415b85acef810000000083106119de576d04ee2d6d415b85acef810000000083816119d4576119d3612b3a565b5b0492506020810190505b662386f26fc100008310611a0d57662386f26fc100008381611a0357611a02612b3a565b5b0492506010810190505b6305f5e1008310611a36576305f5e1008381611a2c57611a2b612b3a565b5b0492506008810190505b6127108310611a5b576127108381611a5157611a50612b3a565b5b0492506004810190505b60648310611a7e5760648381611a7457611a73612b3a565b5b0492506002810190505b600a8310611a8d576001810190505b80915050919050565b6000604051905090565b600080fd5b600080fd5b60007fffffffff0000000000000000000000000000000000000000000000000000000082169050919050565b611adf81611aaa565b8114611aea57600080fd5b50565b600081359050611afc81611ad6565b92915050565b600060208284031215611b1857611b17611aa0565b5b6000611b2684828501611aed565b91505092915050565b60008115159050919050565b611b4481611b2f565b82525050565b6000602082019050611b5f6000830184611b3b565b92915050565b600081519050919050565b600082825260208201905092915050565b60005b83811015611b9f578082015181840152602081019050611b84565b60008484015250505050565b6000601f19601f8301169050919050565b6000611bc782611b65565b611bd18185611b70565b9350611be1818560208601611b81565b611bea81611bab565b840191505092915050565b60006020820190508181036000830152611c0f8184611bbc565b905092915050565b6000819050919050565b611c2a81611c17565b8114611c3557600080fd5b50565b600081359050611c4781611c21565b92915050565b600060208284031215611c6357611c62611aa0565b5b6000611c7184828501611c38565b91505092915050565b600073ffffffffffffffffffffffffffffffffffffffff82169050919050565b6000611ca582611c7a565b9050919050565b611cb581611c9a565b82525050565b6000602082019050611cd06000830184611cac565b92915050565b611cdf81611c9a565b8114611cea57600080fd5b50565b600081359050611cfc81611cd6565b92915050565b60008060408385031215611d1957611d18611aa0565b5b6000611d2785828601611ced565b9250506020611d3885828601611c38565b9150509250929050565b600080600060608486031215611d5b57611d5a611aa0565b5b6000611d6986828701611ced565b9350506020611d7a86828701611ced565b9250506040611d8b86828701611c38565b9150509250925092565b600080fd5b600080fd5b7f4e487b7100000000000000000000000000000000000000000000000000000000600052604160045260246000fd5b611dd782611bab565b810181811067ffffffffffffffff82111715611df657611df5611d9f565b5b80604052505050565b6000611e09611a96565b9050611e158282611dce565b919050565b600067ffffffffffffffff821115611e3557611e34611d9f565b5b611e3e82611bab565b9050602081019050919050565b82818337600083830152505050565b6000611e6d611e6884611e1a565b611dff565b905082815260208101848484011115611e8957611e88611d9a565b5b611e94848285611e4b565b509392505050565b600082601f830112611eb157611eb0611d95565b5b8135611ec1848260208601611e5a565b91505092915050565b600060208284031215611ee057611edf611aa0565b5b600082013567ffffffffffffffff811115611efe57611efd611aa5565b5b611f0a84828501611e9c565b91505092915050565b611f1c81611c17565b82525050565b6000602082019050611f376000830184611f13565b92915050565b600060208284031215611f5357611f52611aa0565b5b6000611f6184828501611ced565b91505092915050565b611f7381611b2f565b8114611f7e57600080fd5b50565b600081359050611f9081611f6a565b92915050565b60008060408385031215611fad57611fac611aa0565b5b6000611fbb85828601611ced565b9250506020611fcc85828601611f81565b9150509250929050565b600067ffffffffffffffff821115611ff157611ff0611d9f565b5b611ffa82611bab565b9050602081019050919050565b600061201a61201584611fd6565b611dff565b90508281526020810184848401111561203657612035611d9a565b5b612041848285611e4b565b509392505050565b600082601f83011261205e5761205d611d95565b5b813561206e848260208601612007565b91505092915050565b6000806000806080858703121561209157612090611aa0565b5b600061209f87828801611ced565b94505060206120b087828801611ced565b93505060406120c187828801611c38565b925050606085013567ffffffffffffffff8111156120e2576120e1611aa5565b5b6120ee87828801612049565b91505092959194509250565b6000806040838503121561211157612110611aa0565b5b600061211f85828601611ced565b925050602061213085828601611ced565b9150509250929050565b7f4e487b7100000000000000000000000000000000000000000000000000000000600052602260045260246000fd5b6000600282049050600182168061218157607f821691505b6020821081036121945761219361213a565b5b50919050565b7f4552433732313a20617070726f76616c20746f2063757272656e74206f776e6560008201527f7200000000000000000000000000000000000000000000000000000000000000602082015250565b60006121f6602183611b70565b91506122018261219a565b604082019050919050565b60006020820190508181036000830152612225816121e9565b9050919050565b7f4552433732313a20617070726f76652063616c6c6572206973206e6f7420746f60008201527f6b656e206f776e6572206f7220617070726f76656420666f7220616c6c000000602082015250565b6000612288603d83611b70565b91506122938261222c565b604082019050919050565b600060208201905081810360008301526122b78161227b565b9050919050565b7f4552433732313a2063616c6c6572206973206e6f7420746f6b656e206f776e6560008201527f72206f7220617070726f76656400000000000000000000000000000000000000602082015250565b600061231a602d83611b70565b9150612325826122be565b604082019050919050565b600060208201905081810360008301526123498161230d565b9050919050565b7f4e487b7100000000000000000000000000000000000000000000000000000000600052601160045260246000fd5b600061238a82611c17565b91507fffffffffffffffffffffffffffffffffffffffffffffffffffffffffffffffff82036123bc576123bb612350565b5b600182019050919050565b7f4552433732313a20696e76616c696420746f6b656e2049440000000000000000600082015250565b60006123fd601883611b70565b9150612408826123c7565b602082019050919050565b6000602082019050818103600083015261242c816123f0565b9050919050565b7f4552433732313a2061646472657373207a65726f206973206e6f74206120766160008201527f6c6964206f776e65720000000000000000000000000000000000000000000000602082015250565b600061248f602983611b70565b915061249a82612433565b604082019050919050565b600060208201905081810360008301526124be81612482565b9050919050565b600081905092915050565b60006124db82611b65565b6124e581856124c5565b93506124f5818560208601611b81565b80840191505092915050565b600061250d82856124d0565b915061251982846124d0565b91508190509392505050565b7f4552433732313a207472616e736665722066726f6d20696e636f72726563742060008201527f6f776e6572000000000000000000000000000000000000000000000000000000602082015250565b6000612581602583611b70565b915061258c82612525565b604082019050919050565b600060208201905081810360008301526125b081612574565b9050919050565b7f4552433732313a207472616e7366657220746f20746865207a65726f2061646460008201527f7265737300000000000000000000000000000000000000000000000000000000602082015250565b6000612613602483611b70565b915061261e826125b7565b604082019050919050565b6000602082019050818103600083015261264281612606565b9050919050565b7f45524337323155524953746f726167653a2055524920736574206f66206e6f6e60008201527f6578697374656e7420746f6b656e000000000000000000000000000000000000602082015250565b60006126a5602e83611b70565b91506126b082612649565b604082019050919050565b600060208201905081810360008301526126d481612698565b9050919050565b60008190508160005260206000209050919050565b60006020601f8301049050919050565b600082821b905092915050565b60006008830261273d7fffffffffffffffffffffffffffffffffffffffffffffffffffffffffffffffff82612700565b6127478683612700565b95508019841693508086168417925050509392505050565b6000819050919050565b600061278461277f61277a84611c17565b61275f565b611c17565b9050919050565b6000819050919050565b61279e83612769565b6127b26127aa8261278b565b84845461270d565b825550505050565b600090565b6127c76127ba565b6127d2818484612795565b505050565b5b818110156127f6576127eb6000826127bf565b6001810190506127d8565b5050565b601f82111561283b5761280c816126db565b612815846126f0565b81016020851015612824578190505b612838612830856126f0565b8301826127d7565b50505b505050565b600082821c905092915050565b600061285e60001984600802612840565b1980831691505092915050565b6000612877838361284d565b9150826002028217905092915050565b61289082611b65565b67ffffffffffffffff8111156128a9576128a8611d9f565b5b6128b38254612169565b6128be8282856127fa565b600060209050601f8311600181146128f157600084156128df578287015190505b6128e9858261286b565b865550612951565b601f1984166128ff866126db565b60005b8281101561292757848901518255600182019150602085019450602081019050612902565b868310156129445784890151612940601f89168261284d565b8355505b6001600288020188555050505b505050505050565b7f4552433732313a20617070726f766520746f2063616c6c657200000000000000600082015250565b600061298f601983611b70565b915061299a82612959565b602082019050919050565b600060208201905081810360008301526129be81612982565b9050919050565b7f4552433732313a207472616e7366657220746f206e6f6e20455243373231526560008201527f63656976657220696d706c656d656e7465720000000000000000000000000000602082015250565b6000612a21603283611b70565b9150612a2c826129c5565b604082019050919050565b60006020820190508181036000830152612a5081612a14565b9050919050565b600081519050919050565b600082825260208201905092915050565b6000612a7e82612a57565b612a888185612a62565b9350612a98818560208601611b81565b612aa181611bab565b840191505092915050565b6000608082019050612ac16000830187611cac565b612ace6020830186611cac565b612adb6040830185611f13565b8181036060830152612aed8184612a73565b905095945050505050565b600081519050612b0781611ad6565b92915050565b600060208284031215612b2357612b22611aa0565b5b6000612b3184828501612af8565b91505092915050565b7f4e487b7100000000000000000000000000000000000000000000000000000000600052601260045260246000fd5b7f4552433732313a206d696e7420746f20746865207a65726f2061646472657373600082015250565b6000612b9f602083611b70565b9150612baa82612b69565b602082019050919050565b60006020820190508181036000830152612bce81612b92565b9050919050565b7f4552433732313a20746f6b656e20616c7265616479206d696e74656400000000600082015250565b6000612c0b601c83611b70565b9150612c1682612bd5565b602082019050919050565b60006020820190508181036000830152612c3a81612bfe565b905091905056fea26469706673582212207badfabdad177a217a2a60d2c80450096ad807dc9e117211547eef3445466adc64736f6c63430008120033",
  "linkReferences": {},
  "deployedLinkReferences": {}
}